:100000000EC016C014C013C012C011C010C00FC063
:100010000EC00DC00CC00BC00AC009C008C011241E
:100020001FBECFE5D1E0DEBFCDBF47D049C0E8CF8E
:100030001F920F920FB60F9211242F933F938F931D
:100040009F93EF93FF93C398C49A80E197E22EE1C8
:1000500030E0F9013197F1F70197D9F7C498C19AC7
:1000600080E197E22EE130E0F9013197F1F7019755
:10007000D9F7C198C39A80E197E22EE130E0F90107
:100080003197F1F70197D9F7FF91EF919F918F91F8
:100090003F912F910F900FBE0F901F901895BB9A14
:1000A000BC9AB99A78948BB780648BBF85B78D7FE3
:1000B00085BF85B78E7F85BF0895F1DFC39AFECFD8
:0400C000F894FFCFE2
:00000001FF
